{
    "_format": "hh-sol-artifact-1",
    "contractName": "Movie",
    "sourceName": "contracts/movies.sol",
    "abi": [
        {
            "inputs": [
                {
                    "internalType": "address",
                    "name": "_tokenAddress",
                    "type": "address"
                }
            ],
            "stateMutability": "nonpayable",
            "type": "constructor"
        },
        {
            "anonymous": false,
            "inputs": [
                {
                    "indexed": true,
                    "internalType": "address",
                    "name": "buyer",
                    "type": "address"
                },
                {
                    "indexed": false,
                    "internalType": "uint32",
                    "name": "movieId",
                    "type": "uint32"
                }
            ],
            "name": "MoviePurchased",
            "type": "event"
        },
        {
            "inputs": [
                {
                    "internalType": "address",
                    "name": "_user",
                    "type": "address"
                },
                {
                    "internalType": "uint32",
                    "name": "_movieId",
                    "type": "uint32"
                }
            ],
            "name": "hasPurchasedMovie",
            "outputs": [
                {
                    "internalType": "bool",
                    "name": "",
                    "type": "bool"
                }
            ],
            "stateMutability": "view",
            "type": "function"
        },
        {
            "inputs": [
                {
                    "internalType": "address",
                    "name": "",
                    "type": "address"
                },
                {
                    "internalType": "uint32",
                    "name": "",
                    "type": "uint32"
                }
            ],
            "name": "movies",
            "outputs": [
                {
                    "internalType": "bool",
                    "name": "",
                    "type": "bool"
                }
            ],
            "stateMutability": "view",
            "type": "function"
        },
        {
            "inputs": [
                {
                    "internalType": "address",
                    "name": "_tokenAddress",
                    "type": "address"
                }
            ],
            "name": "setTokenAddress",
            "outputs": [],
            "stateMutability": "nonpayable",
            "type": "function"
        },
        {
            "inputs": [],
            "name": "token",
            "outputs": [
                {
                    "internalType": "contract IERC20",
                    "name": "",
                    "type": "address"
                }
            ],
            "stateMutability": "view",
            "type": "function"
        },
        {
            "inputs": [
                {
                    "internalType": "uint32",
                    "name": "_movieId",
                    "type": "uint32"
                }
            ],
            "name": "watchMovie",
            "outputs": [
                {
                    "internalType": "bool",
                    "name": "",
                    "type": "bool"
                }
            ],
            "stateMutability": "nonpayable",
            "type": "function"
        }
    ],
    "bytecode": "0x608060405234801561001057600080fd5b50604051610c5d380380610c5d833981810160405281019061003291906100dc565b80600160006101000a81548173ffffffffffffffffffffffffffffffffffffffff021916908373ffffffffffffffffffffffffffffffffffffffff16021790555050610109565b600080fd5b600073ffffffffffffffffffffffffffffffffffffffff82169050919050565b60006100a98261007e565b9050919050565b6100b98161009e565b81146100c457600080fd5b50565b6000815190506100d6816100b0565b92915050565b6000602082840312156100f2576100f1610079565b5b6000610100848285016100c7565b91505092915050565b610b45806101186000396000f3fe608060405234801561001057600080fd5b50600436106100575760003560e01c806326a4e8d21461005c5780635e90c67414610078578063de9843fa146100a8578063f49e7752146100d8578063fc0c546a14610108575b600080fd5b610076600480360381019061007191906105ff565b610126565b005b610092600480360381019061008d9190610668565b61016a565b60405161009f91906106c3565b60405180910390f35b6100c260048036038101906100bd91906106de565b6101dd565b6040516100cf91906106c3565b60405180910390f35b6100f260048036038101906100ed9190610668565b610547565b6040516100ff91906106c3565b60405180910390f35b610110610576565b60405161011d919061076a565b60405180910390f35b80600160006101000a81548173ffffffffffffffffffffffffffffffffffffffff021916908373ffffffffffffffffffffffffffffffffffffffff16021790555050565b60008060008473ffffffffffffffffffffffffffffffffffffffff1673ffffffffffffffffffffffffffffffffffffffff16815260200190815260200160002060008363ffffffff1663ffffffff16815260200190815260200160002060009054906101000a900460ff16905092915050565b60008060003373ffffffffffffffffffffffffffffffffffffffff1673ffffffffffffffffffffffffffffffffffffffff16815260200190815260200160002060008363ffffffff1663ffffffff16815260200190815260200160002060009054906101000a900460ff1615610288576040517f08c379a000000000000000000000000000000000000000000000000000000000815260040161027f906107e2565b60405180910390fd5b6000620f4240670de0b6b3a76400008463ffffffff166102a8919061083b565b6102b291906108ac565b905080600160009054906101000a900473ffffffffffffffffffffffffffffffffffffffff1673ffffffffffffffffffffffffffffffffffffffff1663dd62ed3e33306040518363ffffffff1660e01b81526004016103129291906108ec565b602060405180830381865afa15801561032f573d6000803e3d6000fd5b505050506040513d601f19601f820116820180604052508101906103539190610941565b1015610394576040517f08c379a000000000000000000000000000000000000000000000000000000000815260040161038b906109ba565b60405180910390fd5b6000600160009054906101000a900473ffffffffffffffffffffffffffffffffffffffff1673ffffffffffffffffffffffffffffffffffffffff166323b872dd3330856040518463ffffffff1660e01b81526004016103f5939291906109e9565b6020604051808303816000875af1158015610414573d6000803e3d6000fd5b505050506040513d601f19601f820116820180604052508101906104389190610a4c565b90508061047a576040517f08c379a000000000000000000000000000000000000000000000000000000000815260040161047190610ac5565b60405180910390fd5b60016000803373ffffffffffffffffffffffffffffffffffffffff1673ffffffffffffffffffffffffffffffffffffffff16815260200190815260200160002060008663ffffffff1663ffffffff16815260200190815260200160002060006101000a81548160ff0219169083151502179055503373ffffffffffffffffffffffffffffffffffffffff167f2259e122d4578a9fa9e2f29b24319139d348bb042d7ee95ebc0c4fb30ae5fc7f856040516105349190610af4565b60405180910390a2600192505050919050565b60006020528160005260406000206020528060005260406000206000915091509054906101000a900460ff1681565b600160009054906101000a900473ffffffffffffffffffffffffffffffffffffffff1681565b600080fd5b600073ffffffffffffffffffffffffffffffffffffffff82169050919050565b60006105cc826105a1565b9050919050565b6105dc816105c1565b81146105e757600080fd5b50565b6000813590506105f9816105d3565b92915050565b6000602082840312156106155761061461059c565b5b6000610623848285016105ea565b91505092915050565b600063ffffffff82169050919050565b6106458161062c565b811461065057600080fd5b50565b6000813590506106628161063c565b92915050565b6000806040838503121561067f5761067e61059c565b5b600061068d858286016105ea565b925050602061069e85828601610653565b9150509250929050565b60008115159050919050565b6106bd816106a8565b82525050565b60006020820190506106d860008301846106b4565b92915050565b6000602082840312156106f4576106f361059c565b5b600061070284828501610653565b91505092915050565b6000819050919050565b600061073061072b610726846105a1565b61070b565b6105a1565b9050919050565b600061074282610715565b9050919050565b600061075482610737565b9050919050565b61076481610749565b82525050565b600060208201905061077f600083018461075b565b92915050565b600082825260208201905092915050565b7f4d6f76696520616c726561647920707572636861736564000000000000000000600082015250565b60006107cc601783610785565b91506107d782610796565b602082019050919050565b600060208201905081810360008301526107fb816107bf565b9050919050565b6000819050919050565b7f4e487b7100000000000000000000000000000000000000000000000000000000600052601160045260246000fd5b600061084682610802565b915061085183610802565b925082820261085f81610802565b915082820484148315176108765761087561080c565b5b5092915050565b7f4e487b7100000000000000000000000000000000000000000000000000000000600052601260045260246000fd5b60006108b782610802565b91506108c283610802565b9250826108d2576108d161087d565b5b828204905092915050565b6108e6816105c1565b82525050565b600060408201905061090160008301856108dd565b61090e60208301846108dd565b9392505050565b61091e81610802565b811461092957600080fd5b50565b60008151905061093b81610915565b92915050565b6000602082840312156109575761095661059c565b5b60006109658482850161092c565b91505092915050565b7f4e6f7420656e6f75676820616c6c6f77616e6365000000000000000000000000600082015250565b60006109a4601483610785565b91506109af8261096e565b602082019050919050565b600060208201905081810360008301526109d381610997565b9050919050565b6109e381610802565b82525050565b60006060820190506109fe60008301866108dd565b610a0b60208301856108dd565b610a1860408301846109da565b949350505050565b610a29816106a8565b8114610a3457600080fd5b50565b600081519050610a4681610a20565b92915050565b600060208284031215610a6257610a6161059c565b5b6000610a7084828501610a37565b91505092915050565b7f546f6b656e207472616e73666572206661696c65640000000000000000000000600082015250565b6000610aaf601583610785565b9150610aba82610a79565b602082019050919050565b60006020820190508181036000830152610ade81610aa2565b9050919050565b610aee8161062c565b82525050565b6000602082019050610b096000830184610ae5565b9291505056fea2646970667358221220b42beb773da40a957902ec9d6bf93d48433dbd193aed2d43a8185cc11202658064736f6c63430008130033",
    "linkReferences": {},
    "deployedLinkReferences": {}
}